:020000040000fa
:080000000002040000000000f2
:020000040000fa
:0400080024030000cd
:020000040000fa
:04000c0024030000c9
:020000040000fa
:0400100024030000c5
:020000040000fa
:0400140024030000c1
:020000040000fa
:0400180024030000bd
:020000040000fa
:04001c0024030000b9
:020000040000fa
:0400200024030000b5
:020000040000fa
:0400240024030000b1
:020000040000fa
:0400280024030000ad
:020000040000fa
:04002c0024030000a9
:020000040000fa
:0400300024030000a5
:020000040000fa
:0400340024030000a1
:020000040000fa
:04003800240300009d
:020000040000fa
:04003c002403000099
:020000040000fa
:040040002403000095
:020000040000fa
:040044002403000091
:020000040000fa
:04004800240300008d
:020000040000fa
:04004c002403000089
:020000040000fa
:040050002403000085
:020000040000fa
:040054002403000081
:020000040000fa
:04005800240300007d
:020000040000fa
:04005c002403000079
:020000040000fa
:040060002403000075
:020000040000fa
:040064002403000071
:020000040000fa
:04006800240300006d
:020000040000fa
:04006c002403000069
:020000040000fa
:040070002403000065
:020000040000fa
:04007400fa0200008c
:020000040000fa
:04007800240300005d
:020000040000fa
:04007c002403000059
:020000040000fa
:040080002403000055
:020000040000fa
:040084002403000051
:020000040000fa
:04008800240300004d
:020000040000fa
:04008c002403000049
:020000040000fa
:040090002403000045
:020000040000fa
:040094002403000041
:020000040000fa
:04009800240300003d
:020000040000fa
:04009c002403000039
:020000040000fa
:0400a0002403000035
:020000040000fa
:0400a4002403000031
:020000040000fa
:0400a800240300002d
:020000040000fa
:0400ac002403000029
:020000040000fa
:0400b0002403000025
:020000040000fa
:0400b4002403000021
:020000040000fa
:0400b800240300001d
:020000040000fa
:0400bc002403000019
:020000040000fa
:0400c0002403000015
:020000040000fa
:0400c4002403000011
:020000040000fa
:0400c800240300000d
:020000040000fa
:0400cc002403000009
:020000040000fa
:0400d0002403000005
:020000040000fa
:0400d4002403000001
:020000040000fa
:0400d80024030000fd
:020000040000fa
:0400dc0024030000f9
:020000040000fa
:0400e00024030000f5
:020000040000fa
:0400e40024030000f1
:020000040000fa
:0400e80024030000ed
:020000040000fa
:0400ec0024030000e9
:020000040000fa
:0400f00024030000e5
:020000040000fa
:0400f40024030000e1
:020000040000fa
:0400f80024030000dd
:020000040000fa
:0400fc0024030000d9
:020000040000fa
:0401000024030000d4
:020000040000fa
:0401040024030000d0
:020000040000fa
:0401080024030000cc
:020000040000fa
:04010c0024030000c8
:020000040000fa
:0401100024030000c4
:020000040000fa
:0401140024030000c0
:020000040000fa
:0401180024030000bc
:020000040000fa
:04011c0024030000b8
:020000040000fa
:0401200024030000b4
:020000040000fa
:0401240024030000b0
:020000040000fa
:0401280024030000ac
:020000040000fa
:04012c0024030000a8
:020000040000fa
:0401300024030000a4
:020000040000fa
:0401340024030000a0
:020000040000fa
:04013800240300009c
:020000040000fa
:04013c002403000098
:020000040000fa
:040140002403000094
:020000040000fa
:040144002403000090
:020000040000fa
:04014800240300008c
:020000040000fa
:04014c002403000088
:020000040000fa
:040150002403000084
:020000040000fa
:040154002403000080
:020000040000fa
:04015800240300007c
:020000040000fa
:04015c002403000078
:020000040000fa
:040160002403000074
:020000040000fa
:040164002403000070
:020000040000fa
:04016800240300006c
:020000040000fa
:04016c002403000068
:020000040000fa
:040170002403000064
:020000040000fa
:040174002403000060
:020000040000fa
:04017800240300005c
:020000040000fa
:04017c002403000058
:020000040000fa
:040180002403000054
:020000040000fa
:040184002403000050
:020000040000fa
:04018800240300004c
:020000040000fa
:04018c002403000048
:020000040000fa
:040190002403000044
:020000040000fa
:040194002403000040
:020000040000fa
:04019800240300003c
:020000040000fa
:04019c002403000038
:020000040000fa
:0401a0002403000034
:020000040000fa
:0401a4002403000030
:020000040000fa
:0401a800240300002c
:020000040000fa
:0401ac002403000028
:020000040000fa
:0401b0002403000024
:020000040000fa
:0401b4002403000020
:020000040000fa
:0401b800240300001c
:020000040000fa
:0401bc002403000018
:020000040000fa
:0401c0002403000014
:020000040000fa
:0401c4002403000010
:020000040000fa
:0401c800240300000c
:020000040000fa
:0401cc002403000008
:020000040000fa
:0401d0002403000004
:020000040000fa
:0401d4002403000000
:020000040000fa
:0401d80024030000fc
:020000040000fa
:0401dc0024030000f8
:020000040000fa
:0401e00024030000f4
:020000040000fa
:0401e40024030000f0
:020000040000fa
:0401e80024030000ec
:020000040000fa
:0401ec0024030000e8
:020000040000fa
:0401f00024030000e4
:020000040000fa
:0401f40024030000e0
:020000040000fa
:0401f80024030000dc
:020000040000fa
:0401fc0024030000d8
:020000040000fa
:0402000024030000d3
:020000040000fa
:0402040024030000cf
:020000040000fa
:0402080024030000cb
:020000040000fa
:04020c0024030000c7
:020000040000fa
:0402100024030000c3
:020000040000fa
:0402140024030000bf
:020000040000fa
:0402180024030000bb
:020000040000fa
:04021c0024030000b7
:020000040000fa
:0402200024030000b3
:020000040000fa
:0402240024030000af
:020000040000fa
:0402280024030000ab
:020000040000fa
:04022c0024030000a7
:020000040000fa
:0402300024030000a3
:020000040000fa
:04023400240300009f
:020000040000fa
:04023800240300009b
:020000040000fa
:04023c002403000097
:020000040000fa
:040240002403000093
:020000040000fa
:04024400240300008f
:020000040000fa
:04024800240300008b
:020000040000fa
:04024c002403000087
:020000040000fa
:040250002403000083
:020000040000fa
:04025400240300007f
:020000040000fa
:04025800240300007b
:020000040000fa
:04025c002403000077
:020000040000fa
:040260002403000073
:020000040000fa
:04026400240300006f
:020000040000fa
:04026800240300006b
:020000040000fa
:04026c002403000067
:020000040000fa
:040270002403000063
:020000040000fa
:04027400240300005f
:020000040000fa
:04027800240300005b
:020000040000fa
:04027c002403000057
:020000040000fa
:040280002403000053
:020000040000fa
:100400002f0021000eff27000e01880000000000d1
:10041000000020000000e000020032000001200087
:100420002002880014000700890007000000e00097
:1004300003003a00807b200001002000020037000a
:100440000000200001002000810f70000100320038
:100450000f000700000020000000e0000200320052
:100460000000020000000000800702000000000001
:100470000040da000000fe00200020000000e00044
:1004800002003200100020009001880000000600e9
:10049000a1028800800478000000eb001f003700f4
:1004a000e284440054a0b4009905ba00e2844400f8
:1004b00054a0b4009906ba00e284440054a0b400e9
:1004c0000006eb00476fde00fd07b200ae018800ba
:1004d000636ce10003003a000ad801000000eb0061
:1004e0000e003700606ce10008003a00004deb00a0
:1004f0000a05e800020039003420ec000af0a000f0
:100500008b05e900f9ff3e00040037006168e10057
:10051000010032000086eb000b00070019c7ba008b
:100520000e04e0001905ba0003003a000a00e000da
:10053000dbff3a0000000600fe07b200ae028800b2
:100540008a047800f5ff37000cd0a300e20f4d00bd
:100550001c003b0089027800354dba000a05e8000e
:10056000020039003420ec000af0a0008b05e900fd
:100570000f003200254dba000a05e80002003900dc
:100580003420ec000af0a0008b05e90008003200de
:100590000c00e0000600320015cdba000a05e800a4
:1005a000020039003420ec000af0a0008b05e900bd
:1005b0008984e80054a0b4000b00e000e2ff3a0098
:1005c000000006009902ba00055d78008b05e9007d
:1005d000f7ff3200c82ade00055d78008b05e900d0
:1005e000f3ff32000c00e000f1ff320019ddba0029
:1005f000eeff3700801f78003200f8003400f8006a
:1006000010002000a00188001000200000d0fe0093
:100610000000fa0010408000680060000000e00068
:1006200004003200008080000000e80000808800a4
:100630000268a9000080fa003400f9003200f900d5
:100640004f007800004006000040da000000fe0085
:1006500000000500889fbe008a9fbe003004420053
:10066000b0844a0030054b0090854b006000b1001b
:100670000898be000a90be000440e10005c8e100f1
:1006800006d0e10007d8e100020031006800400018
:100690001008e8004f05be004f04be000000060031
:1006a000889fbe008a9fbe001004780090049000ce
:1006b00020059000b00590000418540005985c00d7
:1006c00006185d0007985d00110020000440e1005d
:1006d00005c8e10006d0e10007d8e10001003900bb
:1006e0008000eb00108810004f05be004f04be00d4
:1006f000000006001200fa00889fbe008a9fbe001c
:100700008c9fbe00e0b79f00f1b79f0082bf9f00a3
:1007100093bf9f000605be000404be000000eb006e
:10072000d0b79f00c0b79f00b0b79f00a0b79f0091
:1007300090b79f00000678005fb19700cfb0970098
:10074000820141003fb097000200e00004003d003c
:10075000370007007e805700beff07000300370008
:10076000330007007e805700cdff0700dfb69700fb
:100770000d00e0000c0035006fb29700ffb297004b
:100780000fbb97009fbb97001000200001002000c6
:100790006011b800000272008182720002037300cf
:1007a000838373001b0007000c06e800010420008f
:1007b000810f5600e0ff3a000d00e00004003d000c
:1007c0000802be000a03be007e805700a1ff07009a
:1007d0005fa897000000e00005003a001fb29700f4
:1007e000afb297003fb39700cfb39700090007005f
:1007f0006fb09700ffb097000fb997009fb99700af
:100800004f06be004f05be004f04be000080fa0038
:10081000000006000100070000000600a4b79f00ca
:10082000b5b79f00c6b79f00d7b79f00000006006e
:100830004f09de0082817100b3b79f004f01de00d7
:100840008180400082807000a1b79f008fb0970028
:100850004f09de00000040000200700090b79f00ca
:100860007fa897004f01de008180400082807000e9
:1008700081b79f000d0007004f3ade0000004000e6
:1008800004007000f0af9f0008000700040242005f
:1008900085824a0006034b0087834b00dfff070079
:1008a0000802be000a03be00000006002fb2970037
:1008b000bfb297004fb39700dfb397000000060068
:1008c000881f780018002000881f780089ff070023
:1008d0008f87e9004f04780000000600801feb00be
:1008e00084ff07008f87e90000000600889fbe0094
:1008f0008a9fbe00e00f5000e08f5800e00f5900c3
:10090000e08f59000c003d006044b8006055b8000d
:100910000000540081805c0002015d0083815d0065
:10092000180020001500070008003d00180007000f
:100930000004eb00050037000004eb000f00070087
:1009400002003d001200070018002000dcff070035
:100950000800e000060032006022b8006033b800f2
:100960000000520081805a0002015b0083815b001d
:100970004f05be004f04be0000000600e00f52000d
:10098000e08f5a00e00f5b00e08f5b000000060084
:100990006044b8006055b8000402540085825c00d1
:1009a00006035d0087835d0000000600889fbe008f
:1009b0008a9fbe008c1f7800e00f5000e08f580027
:1009c000e00f5900e08f59000d003d006044b80071
:1009d0006055b8000000540081805c0002015d0099
:1009e00083815d001c0020000820e10009a8e100cf
:1009f0000ab0e1000bb8e1000d003d00080037002f
:100a00000006eb00e00f5200e08f5a00e00f5b00a1
:100a1000e08f5b0006003d006044b8006055b80000
:100a20000402540085825c0006035d0087835d003c
:100a3000aaff07000c00e000060032006022b800a8
:100a40006033b8000000520081805a0002015b0050
:100a500083815b004f0678004f05be004f04be0047
:100a600000000600889fbe008a9fbe008c1f780091
:100a70000006eb00e00f5000e08f5800e00f590037
:100a8000e08f590007003d006044b8006055b80091
:100a90000000540081805c0002015d0083815d00e4
:100aa0001c002000e00f5200e08f5a00e00f5b00b6
:100ab000e08f5b0007003d006044b8006055b8005f
:100ac0000402540085825c0006035d0087835d009c
:100ad0000c00a2000c0007000c00e0000600320031
:100ae0006022b8006033b8000000520081805a00d4
:100af00002015b0083815b004f0678004f05be005a
:100b00004f04be0000000600889fbe008a9fbe0002
:100b10008c9fbe000404b8000506b8008904460096
:100b200060854e000606b8000a054600e0854e00c6
:100b30000706b8008b054600040eb800890446007d
:100b40000a854e00e0854d00050eb8000a054600f6
:100b50008b854e00060eb8008b0546000416b800c3
:100b60000a0546008b854e000516b8008b05460029
:100b7000041eb8008b0546000800be000a01be0036
:100b80004f06be004f05be004f04be000000060029
:020000040000fa
:100b90000000fa00213a800000fe2f000080600073
:100ba000203a8800313a800000e02f008080600009
:100bb0006002200001007000303a8800213a800075
:100bc000f0f32f0000806000203a880032002000ff
:100bd00080072000a109200033742000804978009c
:100be0008149780082497800103a8000000178003d
:100bf0000200a00060042000710520002374200082
:100c0000804978008149780082497800000000001e
:100c1000113a80000000270080806000000023005f
:100c2000808f5000faff3a0000000000113a800067
:100c300000022000008060000000e000fbff3200a6
:100c40000080fa00000006000000fa00113a80005f
:100c5000f00b20000081600060042000710520007e
:100c60002374200080497800814978008249780007
:100c700021348000f00f2c00008060000080a00074
:100c8000203488002136800000f82f00808060002a
:100c9000800220000100700020368800103a800099
:100ca000000178000260a0006004200071052000af
:100cb00023742000804978008149780082497800b7
:100cc00021e2a9002062a900f00120004011880063
:100cd0002342a80021e2a8000080fa0000000600dc
:100ce0000000fa00b01220002010880007e2a800df
:100cf0000080fa00000006000000fa000602a800ca
:100d00000000000030108000610060000000e00082
:100d1000fcff3a000080fa00000006000000fa0024
:100d20000642a8000000000030108000640060004f
:100d30000000e000fcff3a000080fa00000006001e
:100d40000200fa00004f78001e80fb00101088009f
:100d500000000000411080000000240000806000be
:100d60000000e000fbff3a00401080004f00de0072
:100d7000004078000080fa00000006000400fa003d
:100d8000100798001e0090004400de00004f78001d
:100d90001e009000004078004400dd0010479800dd
:100da000d5ff070000ccb300e5ff07000004e0001a
:100db00002003200d9ff07000700370000c4b3006b
:100dc000dfff07001e407800ddff07001e40900097
:100dd000dbff0700d1ff07000080fa0000000600db
:100de0000200fa00000f7800054ea8001e007800ef
:100df0008000eb006011b800047028003539200035
:100e00006033b80017ff0700843e20000500200073
:100e10006033b800aafe07000000be0046000700cd
:100e2000054ea9000080fa00000006000000fa004c
:100e3000118ea800198ea80041428000f0ff280002
:100e400080806000000023000100700040428800a4
:100e50000268a9002268a800c3e8a80000000000fa
:100e6000000000000080fa00000006000000fa0008
:100e7000008080000000e0000300320040062000f7
:100e8000d7ff07000030ef000080fa0000000600e6
:100e90000000fa000e2ea800002ea8002023a900b2
:100ea0002043a8001119800030f82f000080600056
:100eb0001019880070c0b30024e3b70021e3a80034
:100ec0000080fa00000006000000fa002023a800bd
:100ed0008025200001002000170007002023a90022
:100ee0000000000000198000610060000000e000c8
:100ef000fcff3200001880000080fa0000000600ad
:100f00000200fa0022ff070075ff0700c7ff070075
:100f10004dff0700803e200098ff0700d3ff070029
:100f2000007028003139200003000700e6ff0700a9
:080f3000000f7800f9ff370003
:020000040000fa
:100f3800f03fb1000180b10006003500ee03090062
:100f480000000000403fb1000180b100fbff3d0000
:100f58001000b000203fb0000200350000800900fa
:080f680000000000000006007b
:020000040000fa
:100f700000100000020000008000000000000000df
:020000040000fa
:020000040005f5
:045fe000ceff0000f0
:020000040000fa
:020000040005f5
:045fe8007fff000037
:020000040000fa
:020000040005f5
:045fec009dff000015
:020000040000fa
:020000040005f5
:045ff0007bff000033
:00000001FF
